{
  "_format": "hh-sol-artifact-1",
  "contractName": "Game",
  "sourceName": "contracts/Game.sol",
  "abi": [
    {
      "inputs": [],
      "stateMutability": "nonpayable",
      "type": "constructor"
    },
    {
      "anonymous": false,
      "inputs": [
        {
          "indexed": true,
          "internalType": "uint256",
          "name": "roomNumber",
          "type": "uint256"
        },
        {
          "indexed": true,
          "internalType": "address",
          "name": "winner",
          "type": "address"
        }
      ],
      "name": "GameCompleted",
      "type": "event"
    },
    {
      "anonymous": false,
      "inputs": [
        {
          "indexed": true,
          "internalType": "uint256",
          "name": "roomNumber",
          "type": "uint256"
        },
        {
          "indexed": true,
          "internalType": "address",
          "name": "creator",
          "type": "address"
        },
        {
          "indexed": false,
          "internalType": "uint8",
          "name": "gameType",
          "type": "uint8"
        }
      ],
      "name": "GameInitialized",
      "type": "event"
    },
    {
      "anonymous": false,
      "inputs": [
        {
          "indexed": true,
          "internalType": "uint256",
          "name": "roomNumber",
          "type": "uint256"
        },
        {
          "indexed": true,
          "internalType": "address",
          "name": "player",
          "type": "address"
        }
      ],
      "name": "PlayerJoined",
      "type": "event"
    },
    {
      "inputs": [],
      "name": "adminResetGame",
      "outputs": [],
      "stateMutability": "nonpayable",
      "type": "function"
    },
    {
      "inputs": [
        {
          "internalType": "address",
          "name": "user",
          "type": "address"
        }
      ],
      "name": "completeGame",
      "outputs": [],
      "stateMutability": "nonpayable",
      "type": "function"
    },
    {
      "inputs": [],
      "name": "gameStartTime",
      "outputs": [
        {
          "internalType": "uint256",
          "name": "",
          "type": "uint256"
        }
      ],
      "stateMutability": "view",
      "type": "function"
    },
    {
      "inputs": [],
      "name": "gameType",
      "outputs": [
        {
          "internalType": "uint8",
          "name": "",
          "type": "uint8"
        }
      ],
      "stateMutability": "view",
      "type": "function"
    },
    {
      "inputs": [
        {
          "internalType": "uint256",
          "name": "_roomNumber",
          "type": "uint256"
        }
      ],
      "name": "getGameDetails",
      "outputs": [
        {
          "internalType": "address",
          "name": "winner",
          "type": "address"
        },
        {
          "internalType": "uint256",
          "name": "timeTaken",
          "type": "uint256"
        },
        {
          "internalType": "uint8",
          "name": "gameTypeResult",
          "type": "uint8"
        }
      ],
      "stateMutability": "view",
      "type": "function"
    },
    {
      "inputs": [
        {
          "internalType": "address",
          "name": "creator",
          "type": "address"
        },
        {
          "internalType": "uint8",
          "name": "_gameType",
          "type": "uint8"
        },
        {
          "internalType": "uint256",
          "name": "_roomNumber",
          "type": "uint256"
        }
      ],
      "name": "initializeGame",
      "outputs": [],
      "stateMutability": "nonpayable",
      "type": "function"
    },
    {
      "inputs": [],
      "name": "isGameReady",
      "outputs": [
        {
          "internalType": "bool",
          "name": "",
          "type": "bool"
        }
      ],
      "stateMutability": "view",
      "type": "function"
    },
    {
      "inputs": [
        {
          "internalType": "address",
          "name": "player",
          "type": "address"
        }
      ],
      "name": "joinGame",
      "outputs": [],
      "stateMutability": "nonpayable",
      "type": "function"
    },
    {
      "inputs": [],
      "name": "player1",
      "outputs": [
        {
          "internalType": "address",
          "name": "",
          "type": "address"
        }
      ],
      "stateMutability": "view",
      "type": "function"
    },
    {
      "inputs": [],
      "name": "player1Completed",
      "outputs": [
        {
          "internalType": "bool",
          "name": "",
          "type": "bool"
        }
      ],
      "stateMutability": "view",
      "type": "function"
    },
    {
      "inputs": [],
      "name": "player1Joined",
      "outputs": [
        {
          "internalType": "bool",
          "name": "",
          "type": "bool"
        }
      ],
      "stateMutability": "view",
      "type": "function"
    },
    {
      "inputs": [],
      "name": "player2",
      "outputs": [
        {
          "internalType": "address",
          "name": "",
          "type": "address"
        }
      ],
      "stateMutability": "view",
      "type": "function"
    },
    {
      "inputs": [],
      "name": "player2Completed",
      "outputs": [
        {
          "internalType": "bool",
          "name": "",
          "type": "bool"
        }
      ],
      "stateMutability": "view",
      "type": "function"
    },
    {
      "inputs": [],
      "name": "player2Joined",
      "outputs": [
        {
          "internalType": "bool",
          "name": "",
          "type": "bool"
        }
      ],
      "stateMutability": "view",
      "type": "function"
    },
    {
      "inputs": [],
      "name": "roomNumber",
      "outputs": [
        {
          "internalType": "uint256",
          "name": "",
          "type": "uint256"
        }
      ],
      "stateMutability": "view",
      "type": "function"
    }
  ],
  "bytecode": "0x608060405234801561001057600080fd5b5061078f806100206000396000f3fe608060405234801561001057600080fd5b50600436106100f55760003560e01c80639ae98f6e11610097578063d23b96a111610066578063d23b96a114610228578063d30895e414610231578063d52b3c1c14610244578063e60d8fb21461025757600080fd5b80639ae98f6e146101d9578063a8bde929146101e6578063bbdc02db146101fa578063c5797ae71461022057600080fd5b80632389a290116100d35780632389a29014610173578063303aae941461018857806359a5f12d1461019b578063727e6366146101c657600080fd5b80630252b995146100fa5780631b31abda146101165780631e757b1a14610151575b600080fd5b61010360055481565b6040519081526020015b60405180910390f35b610129610124366004610696565b61025f565b604080516001600160a01b039094168452602084019290925260ff169082015260600161010d565b60065461016390610100900460ff1681565b604051901515815260200161010d565b6101866101813660046106cb565b610367565b005b6006546101639062010000900460ff1681565b6003546101ae906001600160a01b031681565b6040516001600160a01b03909116815260200161010d565b6101866101d43660046106ed565b610464565b6006546101639060ff1681565b600654610163906301000000900460ff1681565b60035461020e90600160a01b900460ff1681565b60405160ff909116815260200161010d565b610186610545565b61010360045481565b6002546101ae906001600160a01b031681565b6101866102523660046106cb565b61057a565b610163610675565b600080600060045484146102b05760405162461bcd60e51b815260206004820152601360248201527224b73b30b634b2103937b7b690373ab6b132b960691b60448201526064015b60405180910390fd5b60065462010000900460ff1680156102d157506006546301000000900460ff165b6103125760405162461bcd60e51b815260206004820152601260248201527111d85b59481b9bdd0818dbdb5c1b195d195960721b60448201526064016102a7565b6001546000541015610338576002546000546001600160a01b039091169350915061034e565b6003546001546001600160a01b03909116935091505b600360149054906101000a900460ff1690509193909250565b600654610100900460ff16156103ae5760405162461bcd60e51b815260206004820152600c60248201526b11d85b59481a5cc8199d5b1b60a21b60448201526064016102a7565b6002546001600160a01b03908116908216036104035760405162461bcd60e51b815260206004820152601460248201527343616e6e6f74206a6f696e206f776e2067616d6560601b60448201526064016102a7565b600380546001600160a01b0383166001600160a01b031990911681179091556006805461ff001916610100179055426005556004546040517f87969bc7faf902221a147b95ceba76e011c5efb0339a0a8ee7a2bb82d9cfbbd690600090a350565b6002546001600160a01b0316156104bd5760405162461bcd60e51b815260206004820152601860248201527f47616d6520616c726561647920696e697469616c697a6564000000000000000060448201526064016102a7565b600280546001600160a01b0319166001600160a01b0385169081179091556006805460ff191660011790556003805460ff60a01b1916600160a01b60ff861690810291909117909155600483905560405190815282907f0bf549d82379e8c0a986563b3fdda3a870c2efca9996a0b7e2e7bf0ad391a6939060200160405180910390a3505050565b610578600280546001600160a01b03199081169091556003805490911690556006805463ffffffff191690556000600555565b565b6002546001600160a01b03908116908216036106015760065462010000900460ff16156105dd5760405162461bcd60e51b8152602060048201526011602482015270105b1c9958591e4818dbdb5c1b195d1959607a1b60448201526064016102a7565b6006805462ff00001916620100001790556005546105fb9042610732565b60005550565b6006546301000000900460ff161561064f5760405162461bcd60e51b8152602060048201526011602482015270105b1c9958591e4818dbdb5c1b195d1959607a1b60448201526064016102a7565b6006805463ff0000001916630100000017905560055461066f9042610732565b60015550565b60065460009060ff1680156106915750600654610100900460ff165b905090565b6000602082840312156106a857600080fd5b5035919050565b80356001600160a01b03811681146106c657600080fd5b919050565b6000602082840312156106dd57600080fd5b6106e6826106af565b9392505050565b60008060006060848603121561070257600080fd5b61070b846106af565b9250602084013560ff8116811461072157600080fd5b929592945050506040919091013590565b8181038181111561075357634e487b7160e01b600052601160045260246000fd5b9291505056fea2646970667358221220090ffb8fd0a3086e0dd34cacb334757d82534efd9cc1d01605a7214ca21637b264736f6c63430008130033",
  "linkReferences": {},
  "deployedLinkReferences": {}
}